:102000000A0F11120F1112141112141612141617AE
:102010001416121411120F110E0F0A0B080A0A00DF
:102020000A0F11120F11121411121416121416178E
:102030001416121411120F110E0F0A0B080A0A00BF
:102040000000171717171616161614141414121268
:102050001212111111110F0F0F0F0E0E0E0E0E0E88
:102060000E0E0B0B0B0B0A0A0A0A080808080606D4
:102070000606050505050303030302020202020228
:1020800000000A0F11120F1112141112141612145B
:1020900016171416121411120F110E0F0A0B080A3C
:1020A0000806050303030303030303030000000002
:0720B0000000000000001E0B
:00000001FF
